{
  "_format": "hh-sol-artifact-1",
  "contractName": "ZamailSimple",
  "sourceName": "contracts/ZamailSimple.sol",
  "abi": [
    {
      "inputs": [],
      "stateMutability": "nonpayable",
      "type": "constructor"
    },
    {
      "inputs": [
        {
          "internalType": "address",
          "name": "owner",
          "type": "address"
        }
      ],
      "name": "OwnableInvalidOwner",
      "type": "error"
    },
    {
      "inputs": [
        {
          "internalType": "address",
          "name": "account",
          "type": "address"
        }
      ],
      "name": "OwnableUnauthorizedAccount",
      "type": "error"
    },
    {
      "anonymous": false,
      "inputs": [
        {
          "indexed": true,
          "internalType": "address",
          "name": "owner",
          "type": "address"
        },
        {
          "indexed": false,
          "internalType": "string",
          "name": "email",
          "type": "string"
        }
      ],
      "name": "EmailRegistered",
      "type": "event"
    },
    {
      "anonymous": false,
      "inputs": [
        {
          "indexed": true,
          "internalType": "address",
          "name": "from",
          "type": "address"
        },
        {
          "indexed": true,
          "internalType": "address",
          "name": "to",
          "type": "address"
        },
        {
          "indexed": false,
          "internalType": "uint256",
          "name": "timestamp",
          "type": "uint256"
        }
      ],
      "name": "MailSent",
      "type": "event"
    },
    {
      "anonymous": false,
      "inputs": [
        {
          "indexed": true,
          "internalType": "address",
          "name": "previousOwner",
          "type": "address"
        },
        {
          "indexed": true,
          "internalType": "address",
          "name": "newOwner",
          "type": "address"
        }
      ],
      "name": "OwnershipTransferred",
      "type": "event"
    },
    {
      "anonymous": false,
      "inputs": [
        {
          "indexed": true,
          "internalType": "address",
          "name": "to",
          "type": "address"
        },
        {
          "indexed": false,
          "internalType": "uint256",
          "name": "amount",
          "type": "uint256"
        }
      ],
      "name": "Withdrawal",
      "type": "event"
    },
    {
      "inputs": [],
      "name": "REGISTER_FEE_WEI",
      "outputs": [
        {
          "internalType": "uint256",
          "name": "",
          "type": "uint256"
        }
      ],
      "stateMutability": "view",
      "type": "function"
    },
    {
      "inputs": [],
      "name": "SEND_MAIL_FEE_WEI",
      "outputs": [
        {
          "internalType": "uint256",
          "name": "",
          "type": "uint256"
        }
      ],
      "stateMutability": "view",
      "type": "function"
    },
    {
      "inputs": [
        {
          "internalType": "string",
          "name": "",
          "type": "string"
        }
      ],
      "name": "emailOwner",
      "outputs": [
        {
          "internalType": "address",
          "name": "",
          "type": "address"
        }
      ],
      "stateMutability": "view",
      "type": "function"
    },
    {
      "inputs": [],
      "name": "getInbox",
      "outputs": [
        {
          "components": [
            {
              "internalType": "address",
              "name": "from",
              "type": "address"
            },
            {
              "internalType": "string",
              "name": "subject",
              "type": "string"
            },
            {
              "internalType": "string",
              "name": "body",
              "type": "string"
            },
            {
              "internalType": "uint256",
              "name": "timestamp",
              "type": "uint256"
            }
          ],
          "internalType": "struct ZamailSimple.Mail[]",
          "name": "",
          "type": "tuple[]"
        }
      ],
      "stateMutability": "view",
      "type": "function"
    },
    {
      "inputs": [],
      "name": "getInboxCount",
      "outputs": [
        {
          "internalType": "uint256",
          "name": "",
          "type": "uint256"
        }
      ],
      "stateMutability": "view",
      "type": "function"
    },
    {
      "inputs": [],
      "name": "getMyEmail",
      "outputs": [
        {
          "internalType": "string",
          "name": "",
          "type": "string"
        }
      ],
      "stateMutability": "view",
      "type": "function"
    },
    {
      "inputs": [],
      "name": "getOutbox",
      "outputs": [
        {
          "components": [
            {
              "internalType": "address",
              "name": "from",
              "type": "address"
            },
            {
              "internalType": "string",
              "name": "subject",
              "type": "string"
            },
            {
              "internalType": "string",
              "name": "body",
              "type": "string"
            },
            {
              "internalType": "uint256",
              "name": "timestamp",
              "type": "uint256"
            }
          ],
          "internalType": "struct ZamailSimple.Mail[]",
          "name": "",
          "type": "tuple[]"
        }
      ],
      "stateMutability": "view",
      "type": "function"
    },
    {
      "inputs": [],
      "name": "getOutboxCount",
      "outputs": [
        {
          "internalType": "uint256",
          "name": "",
          "type": "uint256"
        }
      ],
      "stateMutability": "view",
      "type": "function"
    },
    {
      "inputs": [
        {
          "internalType": "address",
          "name": "",
          "type": "address"
        },
        {
          "internalType": "uint256",
          "name": "",
          "type": "uint256"
        }
      ],
      "name": "inbox",
      "outputs": [
        {
          "internalType": "address",
          "name": "from",
          "type": "address"
        },
        {
          "internalType": "string",
          "name": "subject",
          "type": "string"
        },
        {
          "internalType": "string",
          "name": "body",
          "type": "string"
        },
        {
          "internalType": "uint256",
          "name": "timestamp",
          "type": "uint256"
        }
      ],
      "stateMutability": "view",
      "type": "function"
    },
    {
      "inputs": [
        {
          "internalType": "address",
          "name": "",
          "type": "address"
        },
        {
          "internalType": "uint256",
          "name": "",
          "type": "uint256"
        }
      ],
      "name": "outbox",
      "outputs": [
        {
          "internalType": "address",
          "name": "from",
          "type": "address"
        },
        {
          "internalType": "string",
          "name": "subject",
          "type": "string"
        },
        {
          "internalType": "string",
          "name": "body",
          "type": "string"
        },
        {
          "internalType": "uint256",
          "name": "timestamp",
          "type": "uint256"
        }
      ],
      "stateMutability": "view",
      "type": "function"
    },
    {
      "inputs": [],
      "name": "owner",
      "outputs": [
        {
          "internalType": "address",
          "name": "",
          "type": "address"
        }
      ],
      "stateMutability": "view",
      "type": "function"
    },
    {
      "inputs": [
        {
          "internalType": "address",
          "name": "",
          "type": "address"
        }
      ],
      "name": "ownerEmail",
      "outputs": [
        {
          "internalType": "string",
          "name": "",
          "type": "string"
        }
      ],
      "stateMutability": "view",
      "type": "function"
    },
    {
      "inputs": [
        {
          "internalType": "string",
          "name": "email",
          "type": "string"
        }
      ],
      "name": "registerEmail",
      "outputs": [],
      "stateMutability": "payable",
      "type": "function"
    },
    {
      "inputs": [],
      "name": "renounceOwnership",
      "outputs": [],
      "stateMutability": "nonpayable",
      "type": "function"
    },
    {
      "inputs": [
        {
          "internalType": "string",
          "name": "recipientEmail",
          "type": "string"
        },
        {
          "internalType": "string",
          "name": "subject",
          "type": "string"
        },
        {
          "internalType": "string",
          "name": "body",
          "type": "string"
        }
      ],
      "name": "sendMail",
      "outputs": [],
      "stateMutability": "payable",
      "type": "function"
    },
    {
      "inputs": [
        {
          "internalType": "address",
          "name": "newOwner",
          "type": "address"
        }
      ],
      "name": "transferOwnership",
      "outputs": [],
      "stateMutability": "nonpayable",
      "type": "function"
    },
    {
      "inputs": [
        {
          "internalType": "address payable",
          "name": "to",
          "type": "address"
        },
        {
          "internalType": "uint256",
          "name": "amount",
          "type": "uint256"
        }
      ],
      "name": "withdraw",
      "outputs": [],
      "stateMutability": "nonpayable",
      "type": "function"
    },
    {
      "stateMutability": "payable",
      "type": "receive"
    }
  ],
  "bytecode": "0x6080604052348015600e575f5ffd5b503380603357604051631e4fbdf760e01b81525f600482015260240160405180910390fd5b603a81603f565b50608e565b5f80546001600160a01b038381166001600160a01b0319831681178455604051919092169283917f8be0079c531659141344cd1fd0a4f28419497f9722a3daafe3b4186f6b6457e09190a35050565b6115e08061009b5f395ff3fe60806040526004361061010c575f3560e01c8063715018a6116100a1578063cfbbb7e711610071578063f2fde38b11610057578063f2fde38b146102f3578063f3fef3a314610312578063ff5794ff14610331575f5ffd5b8063cfbbb7e714610299578063df2ea434146102d9575f5ffd5b8063715018a6146102215780638128d72a146102355780638da5cb5b14610255578063a32fbb7b14610285575f5ffd5b80634d622e7a116100dc5780634d622e7a146101965780635248f091146101c55780635fc2b3b0146101e457806363711865146101f7575f5ffd5b806309ba4a4a146101175780631a9e726b1461012c578063368c093c146101565780633f5f418614610177575f5ffd5b3661011357005b5f5ffd5b61012a61012536600461106b565b61034a565b005b348015610137575f5ffd5b5061014061057d565b60405161014d91906110d8565b60405180910390f35b348015610161575f5ffd5b5061016a61061b565b60405161014d91906110f1565b348015610182575f5ffd5b506101406101913660046111ad565b6107c3565b3480156101a1575f5ffd5b506101b56101b03660046111c8565b61085a565b60405161014d94939291906111f2565b3480156101d0575f5ffd5b506101b56101df3660046111c8565b6109b6565b61012a6101f2366004611237565b6109cf565b348015610202575f5ffd5b50335f908152600460205260409020545b60405190815260200161014d565b34801561022c575f5ffd5b5061012a610cf5565b348015610240575f5ffd5b50335f90815260036020526040902054610213565b348015610260575f5ffd5b505f546001600160a01b03165b6040516001600160a01b03909116815260200161014d565b348015610290575f5ffd5b5061016a610d08565b3480156102a4575f5ffd5b5061026d6102b33660046112ea565b80516020818301810180516001825292820191909301209152546001600160a01b031681565b3480156102e4575f5ffd5b5061021366038d7ea4c6800081565b3480156102fe575f5ffd5b5061012a61030d3660046111ad565b610ea7565b34801561031d575f5ffd5b5061012a61032c3660046111c8565b610ee4565b34801561033c575f5ffd5b50610213655af3107a400081565b66038d7ea4c6800034146103a55760405162461bcd60e51b815260206004820152601960248201527f4d7573742073656e6420657861637420302e303031204554480000000000000060448201526064015b60405180910390fd5b806103f25760405162461bcd60e51b815260206004820152601560248201527f456d61696c2063616e6e6f7420626520656d7074790000000000000000000000604482015260640161039c565b5f6001600160a01b03166001838360405161040e92919061139d565b908152604051908190036020019020546001600160a01b0316146104745760405162461bcd60e51b815260206004820152601360248201527f456d61696c20616c72656164792074616b656e00000000000000000000000000604482015260640161039c565b335f908152600260205260409020805461048d906113ac565b1590506104dc5760405162461bcd60e51b815260206004820152601b60248201527f53656e64657220616c72656164792068617320616e20656d61696c0000000000604482015260640161039c565b33600183836040516104ef92919061139d565b908152604080516020928190038301902080546001600160a01b0319166001600160a01b039490941693909317909255335f908152600290915220610535828483611430565b50336001600160a01b03167f92700a71b2ce154a36827e2d8595683cbdaf670c2b9840ca07d604a4012d350083836040516105719291906114ea565b60405180910390a25050565b335f90815260026020526040902080546060919061059a906113ac565b80601f01602080910402602001604051908101604052809291908181526020018280546105c6906113ac565b80156106115780601f106105e857610100808354040283529160200191610611565b820191905f5260205f20905b8154815290600101906020018083116105f457829003601f168201915b5050505050905090565b335f908152600360209081526040808320805482518185028101850190935280835260609492939192909184015b828210156107ba575f84815260209081902060408051608081019091526004850290910180546001600160a01b031682526001810180549293919291840191610691906113ac565b80601f01602080910402602001604051908101604052809291908181526020018280546106bd906113ac565b80156107085780601f106106df57610100808354040283529160200191610708565b820191905f5260205f20905b8154815290600101906020018083116106eb57829003601f168201915b50505050508152602001600282018054610721906113ac565b80601f016020809104026020016040519081016040528092919081815260200182805461074d906113ac565b80156107985780601f1061076f57610100808354040283529160200191610798565b820191905f5260205f20905b81548152906001019060200180831161077b57829003601f168201915b5050505050815260200160038201548152505081526020019060010190610649565b50505050905090565b60026020525f9081526040902080546107db906113ac565b80601f0160208091040260200160405190810160405280929190818152602001828054610807906113ac565b80156108525780601f1061082957610100808354040283529160200191610852565b820191905f5260205f20905b81548152906001019060200180831161083557829003601f168201915b505050505081565b6003602052815f5260405f208181548110610873575f80fd5b5f918252602090912060049091020180546001820180546001600160a01b0390921694509192506108a3906113ac565b80601f01602080910402602001604051908101604052809291908181526020018280546108cf906113ac565b801561091a5780601f106108f15761010080835404028352916020019161091a565b820191905f5260205f20905b8154815290600101906020018083116108fd57829003601f168201915b50505050509080600201805461092f906113ac565b80601f016020809104026020016040519081016040528092919081815260200182805461095b906113ac565b80156109a65780601f1061097d576101008083540402835291602001916109a6565b820191905f5260205f20905b81548152906001019060200180831161098957829003601f168201915b5050505050908060030154905084565b6004602052815f5260405f208181548110610873575f80fd5b655af3107a40003414610a245760405162461bcd60e51b815260206004820152601a60248201527f4d7573742073656e6420657861637420302e3030303120455448000000000000604482015260640161039c565b5f60018787604051610a3792919061139d565b908152604051908190036020019020546001600160a01b0316905080610a9f5760405162461bcd60e51b815260206004820152601e60248201527f526563697069656e7420656d61696c206e6f7420726567697374657265640000604482015260640161039c565b335f9081526002602052604081208054610ab8906113ac565b905011610b135760405162461bcd60e51b8152602060048201526024808201527f53656e646572206d7573742068617665207265676973746572656420616e20656044820152631b585a5b60e21b606482015260840161039c565b5f6040518060800160405280336001600160a01b0316815260200187878080601f0160208091040260200160405190810160405280939291908181526020018383808284375f92019190915250505090825250604080516020601f8801819004810282018101909252868152918101919087908790819084018382808284375f920182905250938552505042602093840152506001600160a01b038581168252600383526040822080546001808201835591845292849020855160049094020180546001600160a01b0319169390921692909217815591830151929350839290820190610c009082611518565b5060408201516002820190610c159082611518565b5060609190910151600390910155335f90815260046020818152604083208054600180820183559185529382902085519490930290920180546001600160a01b0319166001600160a01b03909416939093178355830151839291820190610c7c9082611518565b5060408201516002820190610c919082611518565b50606082015181600301555050816001600160a01b0316336001600160a01b03167f3a1c8c97bec38020cc4b2d25ed13c763223a3fc40803129fdb0e14b90ec8dfa442604051610ce391815260200190565b60405180910390a35050505050505050565b610cfd610fab565b610d065f610fd7565b565b335f908152600460209081526040808320805482518185028101850190935280835260609492939192909184015b828210156107ba575f84815260209081902060408051608081019091526004850290910180546001600160a01b031682526001810180549293919291840191610d7e906113ac565b80601f0160208091040260200160405190810160405280929190818152602001828054610daa906113ac565b8015610df55780601f10610dcc57610100808354040283529160200191610df5565b820191905f5260205f20905b815481529060010190602001808311610dd857829003601f168201915b50505050508152602001600282018054610e0e906113ac565b80601f0160208091040260200160405190810160405280929190818152602001828054610e3a906113ac565b8015610e855780601f10610e5c57610100808354040283529160200191610e85565b820191905f5260205f20905b815481529060010190602001808311610e6857829003601f168201915b5050505050815260200160038201548152505081526020019060010190610d36565b610eaf610fab565b6001600160a01b038116610ed857604051631e4fbdf760e01b81525f600482015260240161039c565b610ee181610fd7565b50565b610eec610fab565b80471015610f3c5760405162461bcd60e51b815260206004820152601460248201527f696e73756666696369656e742062616c616e6365000000000000000000000000604482015260640161039c565b6040516001600160a01b0383169082156108fc029083905f818181858888f19350505050158015610f6f573d5f5f3e3d5ffd5b50816001600160a01b03167f7fcf532c15f0a6db0bd6d0e038bea71d30d808c7d98cb3bf7268a95bf5081b658260405161057191815260200190565b5f546001600160a01b03163314610d065760405163118cdaa760e01b815233600482015260240161039c565b5f80546001600160a01b038381166001600160a01b0319831681178455604051919092169283917f8be0079c531659141344cd1fd0a4f28419497f9722a3daafe3b4186f6b6457e09190a35050565b5f5f83601f840112611036575f5ffd5b50813567ffffffffffffffff81111561104d575f5ffd5b602083019150836020828501011115611064575f5ffd5b9250929050565b5f5f6020838503121561107c575f5ffd5b823567ffffffffffffffff811115611092575f5ffd5b61109e85828601611026565b90969095509350505050565b5f81518084528060208401602086015e5f602082860101526020601f19601f83011685010191505092915050565b602081525f6110ea60208301846110aa565b9392505050565b5f602082016020835280845180835260408501915060408160051b8601019250602086015f5b8281101561118d57603f1987860301845281516001600160a01b03815116865260208101516080602088015261115060808801826110aa565b90506040820151878203604089015261116982826110aa565b60609384015198909301979097525094506020938401939190910190600101611117565b50929695505050505050565b6001600160a01b0381168114610ee1575f5ffd5b5f602082840312156111bd575f5ffd5b81356110ea81611199565b5f5f604083850312156111d9575f5ffd5b82356111e481611199565b946020939093013593505050565b6001600160a01b0385168152608060208201525f61121360808301866110aa565b828103604084015261122581866110aa565b91505082606083015295945050505050565b5f5f5f5f5f5f6060878903121561124c575f5ffd5b863567ffffffffffffffff811115611262575f5ffd5b61126e89828a01611026565b909750955050602087013567ffffffffffffffff81111561128d575f5ffd5b61129989828a01611026565b909550935050604087013567ffffffffffffffff8111156112b8575f5ffd5b6112c489828a01611026565b979a9699509497509295939492505050565b634e487b7160e01b5f52604160045260245ffd5b5f602082840312156112fa575f5ffd5b813567ffffffffffffffff811115611310575f5ffd5b8201601f81018413611320575f5ffd5b803567ffffffffffffffff81111561133a5761133a6112d6565b604051601f8201601f19908116603f0116810167ffffffffffffffff81118282101715611369576113696112d6565b604052818152828201602001861015611380575f5ffd5b816020840160208301375f91810160200191909152949350505050565b818382375f9101908152919050565b600181811c908216806113c057607f821691505b6020821081036113de57634e487b7160e01b5f52602260045260245ffd5b50919050565b601f82111561142b57805f5260205f20601f840160051c810160208510156114095750805b601f840160051c820191505b81811015611428575f8155600101611415565b50505b505050565b67ffffffffffffffff831115611448576114486112d6565b61145c8361145683546113ac565b836113e4565b5f601f84116001811461148d575f85156114765750838201355b5f19600387901b1c1916600186901b178355611428565b5f83815260208120601f198716915b828110156114bc578685013582556020948501946001909201910161149c565b50868210156114d8575f1960f88860031b161c19848701351681555b505060018560011b0183555050505050565b60208152816020820152818360408301375f818301604090810191909152601f909201601f19160101919050565b815167ffffffffffffffff811115611532576115326112d6565b6115468161154084546113ac565b846113e4565b6020601f821160018114611578575f83156115615750848201515b5f19600385901b1c1916600184901b178455611428565b5f84815260208120601f198516915b828110156115a75787850151825560209485019460019092019101611587565b50848210156115c457868401515f19600387901b60f8161c191681555b50505050600190811b0190555056fea164736f6c634300081b000a",
  "linkReferences": {},
  "deployedLinkReferences": {}
}